{
  "_format": "hh-sol-artifact-1",
  "contractName": "WrappedToken",
  "sourceName": "contracts/WrappedToken.sol",
  "abi": [
    {
      "inputs": [],
      "stateMutability": "nonpayable",
      "type": "constructor"
    },
    {
      "anonymous": false,
      "inputs": [
        {
          "indexed": true,
          "internalType": "address",
          "name": "owner",
          "type": "address"
        },
        {
          "indexed": true,
          "internalType": "address",
          "name": "spender",
          "type": "address"
        },
        {
          "indexed": false,
          "internalType": "uint256",
          "name": "value",
          "type": "uint256"
        }
      ],
      "name": "Approval",
      "type": "event"
    },
    {
      "anonymous": false,
      "inputs": [
        {
          "indexed": true,
          "internalType": "address",
          "name": "from",
          "type": "address"
        },
        {
          "indexed": true,
          "internalType": "address",
          "name": "to",
          "type": "address"
        },
        {
          "indexed": false,
          "internalType": "uint256",
          "name": "value",
          "type": "uint256"
        }
      ],
      "name": "Transfer",
      "type": "event"
    },
    {
      "inputs": [],
      "name": "MintTokens",
      "outputs": [],
      "stateMutability": "payable",
      "type": "function"
    },
    {
      "inputs": [
        {
          "internalType": "uint256",
          "name": "amount",
          "type": "uint256"
        }
      ],
      "name": "RedeemTokens",
      "outputs": [],
      "stateMutability": "nonpayable",
      "type": "function"
    },
    {
      "inputs": [
        {
          "internalType": "address",
          "name": "owner",
          "type": "address"
        },
        {
          "internalType": "address",
          "name": "spender",
          "type": "address"
        }
      ],
      "name": "allowance",
      "outputs": [
        {
          "internalType": "uint256",
          "name": "",
          "type": "uint256"
        }
      ],
      "stateMutability": "view",
      "type": "function"
    },
    {
      "inputs": [
        {
          "internalType": "address",
          "name": "spender",
          "type": "address"
        },
        {
          "internalType": "uint256",
          "name": "amount",
          "type": "uint256"
        }
      ],
      "name": "approve",
      "outputs": [
        {
          "internalType": "bool",
          "name": "",
          "type": "bool"
        }
      ],
      "stateMutability": "nonpayable",
      "type": "function"
    },
    {
      "inputs": [
        {
          "internalType": "address",
          "name": "account",
          "type": "address"
        }
      ],
      "name": "balanceOf",
      "outputs": [
        {
          "internalType": "uint256",
          "name": "",
          "type": "uint256"
        }
      ],
      "stateMutability": "view",
      "type": "function"
    },
    {
      "inputs": [],
      "name": "decimals",
      "outputs": [
        {
          "internalType": "uint8",
          "name": "",
          "type": "uint8"
        }
      ],
      "stateMutability": "view",
      "type": "function"
    },
    {
      "inputs": [
        {
          "internalType": "address",
          "name": "spender",
          "type": "address"
        },
        {
          "internalType": "uint256",
          "name": "subtractedValue",
          "type": "uint256"
        }
      ],
      "name": "decreaseAllowance",
      "outputs": [
        {
          "internalType": "bool",
          "name": "",
          "type": "bool"
        }
      ],
      "stateMutability": "nonpayable",
      "type": "function"
    },
    {
      "inputs": [
        {
          "internalType": "address",
          "name": "spender",
          "type": "address"
        },
        {
          "internalType": "uint256",
          "name": "addedValue",
          "type": "uint256"
        }
      ],
      "name": "increaseAllowance",
      "outputs": [
        {
          "internalType": "bool",
          "name": "",
          "type": "bool"
        }
      ],
      "stateMutability": "nonpayable",
      "type": "function"
    },
    {
      "inputs": [],
      "name": "name",
      "outputs": [
        {
          "internalType": "string",
          "name": "",
          "type": "string"
        }
      ],
      "stateMutability": "view",
      "type": "function"
    },
    {
      "inputs": [],
      "name": "symbol",
      "outputs": [
        {
          "internalType": "string",
          "name": "",
          "type": "string"
        }
      ],
      "stateMutability": "view",
      "type": "function"
    },
    {
      "inputs": [],
      "name": "totalSupply",
      "outputs": [
        {
          "internalType": "uint256",
          "name": "",
          "type": "uint256"
        }
      ],
      "stateMutability": "view",
      "type": "function"
    },
    {
      "inputs": [
        {
          "internalType": "address",
          "name": "to",
          "type": "address"
        },
        {
          "internalType": "uint256",
          "name": "amount",
          "type": "uint256"
        }
      ],
      "name": "transfer",
      "outputs": [
        {
          "internalType": "bool",
          "name": "",
          "type": "bool"
        }
      ],
      "stateMutability": "nonpayable",
      "type": "function"
    },
    {
      "inputs": [
        {
          "internalType": "address",
          "name": "from",
          "type": "address"
        },
        {
          "internalType": "address",
          "name": "to",
          "type": "address"
        },
        {
          "internalType": "uint256",
          "name": "amount",
          "type": "uint256"
        }
      ],
      "name": "transferFrom",
      "outputs": [
        {
          "internalType": "bool",
          "name": "",
          "type": "bool"
        }
      ],
      "stateMutability": "nonpayable",
      "type": "function"
    }
  ],
  "bytecode": "0x60806040523480156200001157600080fd5b5060408051808201825260118152702732bb902bb930b83832b2102a37b5b2b760791b6020808301918252835180850190945260058452640774b5259560dc1b908401528151919291620000689160039162000087565b5080516200007e90600490602084019062000087565b5050506200016a565b82805462000095906200012d565b90600052602060002090601f016020900481019282620000b9576000855562000104565b82601f10620000d457805160ff191683800117855562000104565b8280016001018555821562000104579182015b8281111562000104578251825591602001919060010190620000e7565b506200011292915062000116565b5090565b5b8082111562000112576000815560010162000117565b600181811c908216806200014257607f821691505b602082108114156200016457634e487b7160e01b600052602260045260246000fd5b50919050565b610c3e806200017a6000396000f3fe6080604052600436106100c25760003560e01c8063395093511161007f57806395d89b411161005957806395d89b41146101fd578063a457c2d714610212578063a9059cbb14610232578063dd62ed3e1461025257600080fd5b806339509351146101875780636655d7dd146101a757806370a08231146101c757600080fd5b806306fdde03146100c7578063095ea7b3146100f257806318160ddd146101225780631c4888251461014157806323b872dd1461014b578063313ce5671461016b575b600080fd5b3480156100d357600080fd5b506100dc610298565b6040516100e99190610b35565b60405180910390f35b3480156100fe57600080fd5b5061011261010d366004610af4565b61032a565b60405190151581526020016100e9565b34801561012e57600080fd5b506002545b6040519081526020016100e9565b610149610342565b005b34801561015757600080fd5b50610112610166366004610ab9565b61034e565b34801561017757600080fd5b50604051601281526020016100e9565b34801561019357600080fd5b506101126101a2366004610af4565b610372565b3480156101b357600080fd5b506101496101c2366004610b1d565b6103b1565b3480156101d357600080fd5b506101336101e2366004610a66565b6001600160a01b031660009081526020819052604090205490565b34801561020957600080fd5b506100dc6103ec565b34801561021e57600080fd5b5061011261022d366004610af4565b6103fb565b34801561023e57600080fd5b5061011261024d366004610af4565b610492565b34801561025e57600080fd5b5061013361026d366004610a87565b6001600160a01b03918216600090815260016020908152604080832093909416825291909152205490565b6060600380546102a790610bb7565b80601f01602080910402602001604051908101604052809291908181526020018280546102d390610bb7565b80156103205780601f106102f557610100808354040283529160200191610320565b820191906000526020600020905b81548152906001019060200180831161030357829003601f168201915b5050505050905090565b6000336103388185856104a0565b5060019392505050565b61034c33346105c5565b565b60003361035c8582856106a4565b610367858585610736565b506001949350505050565b3360008181526001602090815260408083206001600160a01b038716845290915281205490919061033890829086906103ac908790610b88565b6104a0565b6103bb3382610904565b604051339082156108fc029083906000818181858888f193505050501580156103e8573d6000803e3d6000fd5b5050565b6060600480546102a790610bb7565b3360008181526001602090815260408083206001600160a01b0387168452909152812054909190838110156104855760405162461bcd60e51b815260206004820152602560248201527f45524332303a2064656372656173656420616c6c6f77616e63652062656c6f77604482015264207a65726f60d81b60648201526084015b60405180910390fd5b61036782868684036104a0565b600033610338818585610736565b6001600160a01b0383166105025760405162461bcd60e51b8152602060048201526024808201527f45524332303a20617070726f76652066726f6d20746865207a65726f206164646044820152637265737360e01b606482015260840161047c565b6001600160a01b0382166105635760405162461bcd60e51b815260206004820152602260248201527f45524332303a20617070726f766520746f20746865207a65726f206164647265604482015261737360f01b606482015260840161047c565b6001600160a01b0383811660008181526001602090815260408083209487168084529482529182902085905590518481527f8c5be1e5ebec7d5bd14f71427d1e84f3dd0314c0f7b2291e5b200ac8c7c3b92591015b60405180910390a3505050565b6001600160a01b03821661061b5760405162461bcd60e51b815260206004820152601f60248201527f45524332303a206d696e7420746f20746865207a65726f206164647265737300604482015260640161047c565b806002600082825461062d9190610b88565b90915550506001600160a01b0382166000908152602081905260408120805483929061065a908490610b88565b90915550506040518181526001600160a01b038316906000907fddf252ad1be2c89b69c2b068fc378daa952ba7f163c4a11628f55a4df523b3ef9060200160405180910390a35050565b6001600160a01b03838116600090815260016020908152604080832093861683529290522054600019811461073057818110156107235760405162461bcd60e51b815260206004820152601d60248201527f45524332303a20696e73756666696369656e7420616c6c6f77616e6365000000604482015260640161047c565b61073084848484036104a0565b50505050565b6001600160a01b03831661079a5760405162461bcd60e51b815260206004820152602560248201527f45524332303a207472616e736665722066726f6d20746865207a65726f206164604482015264647265737360d81b606482015260840161047c565b6001600160a01b0382166107fc5760405162461bcd60e51b815260206004820152602360248201527f45524332303a207472616e7366657220746f20746865207a65726f206164647260448201526265737360e81b606482015260840161047c565b6001600160a01b038316600090815260208190526040902054818110156108745760405162461bcd60e51b815260206004820152602660248201527f45524332303a207472616e7366657220616d6f756e7420657863656564732062604482015265616c616e636560d01b606482015260840161047c565b6001600160a01b038085166000908152602081905260408082208585039055918516815290812080548492906108ab908490610b88565b92505081905550826001600160a01b0316846001600160a01b03167fddf252ad1be2c89b69c2b068fc378daa952ba7f163c4a11628f55a4df523b3ef846040516108f791815260200190565b60405180910390a3610730565b6001600160a01b0382166109645760405162461bcd60e51b815260206004820152602160248201527f45524332303a206275726e2066726f6d20746865207a65726f206164647265736044820152607360f81b606482015260840161047c565b6001600160a01b038216600090815260208190526040902054818110156109d85760405162461bcd60e51b815260206004820152602260248201527f45524332303a206275726e20616d6f756e7420657863656564732062616c616e604482015261636560f01b606482015260840161047c565b6001600160a01b0383166000908152602081905260408120838303905560028054849290610a07908490610ba0565b90915550506040518281526000906001600160a01b038516907fddf252ad1be2c89b69c2b068fc378daa952ba7f163c4a11628f55a4df523b3ef906020016105b8565b80356001600160a01b0381168114610a6157600080fd5b919050565b600060208284031215610a77578081fd5b610a8082610a4a565b9392505050565b60008060408385031215610a99578081fd5b610aa283610a4a565b9150610ab060208401610a4a565b90509250929050565b600080600060608486031215610acd578081fd5b610ad684610a4a565b9250610ae460208501610a4a565b9150604084013590509250925092565b60008060408385031215610b06578182fd5b610b0f83610a4a565b946020939093013593505050565b600060208284031215610b2e578081fd5b5035919050565b6000602080835283518082850152825b81811015610b6157858101830151858201604001528201610b45565b81811115610b725783604083870101525b50601f01601f1916929092016040019392505050565b60008219821115610b9b57610b9b610bf2565b500190565b600082821015610bb257610bb2610bf2565b500390565b600181811c90821680610bcb57607f821691505b60208210811415610bec57634e487b7160e01b600052602260045260246000fd5b50919050565b634e487b7160e01b600052601160045260246000fdfea2646970667358221220e4e5208bef19427922e55af1c705b3f053e9c57ea5c207e51540061d76e63d8c64736f6c63430008040033",
  "linkReferences": {},
  "deployedLinkReferences": {}
}